:020000022000DC
:106000000000012051630200796302007B630200FB
:106010007D6302007F6302008163020000000000D4
:106020000000000000000000000000008363020088
:10603000856302000000000087630200896302009C
:106040008B6302008B6302008B6302008B63020090
:106050008B6302008B6302008B6302008B63020080
:106060008B6302008B6302008B6302008B63020070
:106070008B6302008B6302008B6302008B63020060
:106080008B6302008B6302008B6302008B63020050
:106090008B6302008B6302008B6302008B63020040
:1060A0008B6302008B6302008B6302008B63020030
:1060B0008B6302008B630200000000000000000000
:1060C0008B6302008B6302008B6302008B63020010
:1060D0008B6302008B6302008B6302008B63020000
:1060E0008B6302008B6302008B63020000000000E0
:1060F000000000008B630200000000008B630200C0
:10610000000000000000000000000000000000008F
:10611000000000000000000000000000000000007F
:10612000000000000000000000000000000000006F
:10613000000000000000000000000000000000005F
:10614000000000000000000000000000000000004F
:10615000000000000000000000000000000000003F
:10616000000000000000000000000000000000002F
:10617000000000000000000000000000000000001F
:10618000000000000000000000000000000000000F
:1061900000000000000000000000000000000000FF
:1061A00000000000000000000000000000000000EF
:1061B00000000000000000000000000000000000DF
:1061C00000000000000000000000000000000000CF
:1061D00000000000000000000000000000000000BF
:1061E00000000000000000000000000000000000AF
:1061F000000000000000000000000000000000009F
:1062000010B5054C237833B9044B13B10448AFF3F0
:1062100000800123237010BD7023002000000000C7
:10622000A473020008B5034B1BB103490348AFF345
:10623000008008BD0000000074230020A473020049
:10624000154B002B08BF134B9D46A3F5803A002148
:106250008B460F461348144A121A00F063F80F4B8E
:10626000002B00D098470E4B002B00D09847002001
:10627000002104000D000D48002802D00C48AFF3A7
:10628000008000F02BF82000290000F055F800F005
:1062900011F800BF0000080000000120000000000D
:1062A00000000000702300202024002000000000D7
:1062B0000000000008B5074B044613B10021AFF3FE
:1062C0000080054B1868836A03B19847204600F0A8
:1062D00031F800BF00000000D472020070B50D4E0E
:1062E0000D4CA41BA4100025A54209D10B4E0C4C4B
:1062F00000F0E4FFA41BA4100025A54205D170BD49
:1063000056F8253098470135EEE756F8253098477E
:106310000135F2E76823002068230020682300206D
:106320006C23002002440346934200D1704703F8D7
:10633000011BF9E7FEE700BF80B500AF034800F09E
:10634000C1FA00F0E9FA0346184680BDD87202008F
:106350000649074A074B9B1A03DD043BC858D05037
:10636000FBDC00F021F8FFF76BFF0000B0730200C8
:106370000023002070230020FEE7FEE7FEE7FEE793
:10638000FEE7FEE7FEE7FEE7FEE7FEE780B400AFCC
:10639000034B044A1A6000BFBD465DF8047B70479A
:1063A000642300200090D00380B500AF00F0ECF82B
:1063B0000346002B0ED04FF080430022C3F80C217F
:1063C0004FF080430022C3F810214FF08043002299
:1063D000C3F8382500F000F90346002B76D04FF0C3
:1063E0008053614AD3F80434C2F820354FF080530B
:1063F0005D4AD3F80834C2F824354FF080535A4A26
:10640000D3F80C34C2F828354FF08053564AD3F8ED
:106410001034C2F82C354FF08053534AD3F814345B
:10642000C2F830354FF080534F4AD3F81834C2F8D1
:1064300034354FF080534C4AD3F81C34C2F8403501
:106440004FF08053484AD3F82034C2F844354FF017
:106450008053454AD3F82434C2F848354FF080536E
:10646000414AD3F82834C2F84C354FF080533E4AA5
:10647000D3F82C34C2F850354FF080533A4AD3F851
:106480003034C2F854354FF08053374AD3F834349F
:10649000C2F860354FF08053334AD3F83834C2F82D
:1064A00064354FF08053304AD3F83C34C2F8683535
:1064B0004FF080532C4AD3F84034C2F86C354FF07B
:1064C0008053294AD3F84434C2F8703500F0ACF850
:1064D0000346002B02D0254B254A1A6000F0BAF87B
:1064E0000346002B03D0234BFB22C3F8182500F0F2
:1064F000C7F80346002B0AD01F4B1B6823F00F027E
:106500001E4B1B6803F00F031B4913430B6000F085
:10651000CDF80346002B03D0194B4FF400721A60DC
:1065200000F0DAF80346002B0DD04FF08043D3F88B
:10653000003403F00103002B05D04FF080436FF0CF
:106540000102C3F800240F4BD3F888300D4A43F4FE
:106550007003C2F88830BFF34F8FBFF36F8FFFF720
:1065600015FF00BF80BD00BF00C000408C5600403A
:106570004881030000F00040E40E00405802001083
:106580004096024000ED00E080B400AF104B1B6865
:10659000082B17D10F4B1B68002B01D1012312E0F0
:1065A0000C4B1B68012B01D101230CE0094B1B682C
:1065B000022B01D1012306E0064B1B68032B01D1FE
:1065C000012300E001231846BD465DF8047B7047B7
:1065D000300100103401001080B400AF104B1B6874
:1065E000082B17D10F4B1B68002B01D1012312E0A0
:1065F0000C4B1B68012B01D101230CE0094B1B68DC
:10660000022B01D1012306E0064B1B68032B01D1AD
:10661000012300E001231846BD465DF8047B704766
:10662000300100103401001080B400AF074B1B682C
:10663000082B05D1064B1B68002B01D1012300E07C
:1066400000231846BD465DF8047B704730010010FA
:106650003401001080B400AF074B1B68082B05D134
:10666000064B1B68002B01D1012300E000231846D4
:10667000BD465DF8047B7047300100103401001006
:1066800080B400AF074B1B68082B05D1064B1B6875
:10669000002B01D1012300E000231846BD465DF820
:1066A000047B7047300100103401001080B400AF4B
:1066B000074B1B68082B05D1064B1B68002B01D12B
:1066C000012300E000231846BD465DF8047B7047B7
:1066D000300100103401001080B400AF104B1B6873
:1066E000082B17D10F4B1B68002B01D1012312E09F
:1066F0000C4B1B68012B01D101230CE0094B1B68DB
:10670000022B01D1012306E0064B1B68032B01D1AC
:10671000012300E001231846BD465DF8047B704765
:10672000300100103401001080B582B000AF7860F5
:106730007B681B787E2B09D87B681B781F2B05D9BB
:106740007B681B78184600F02DF921E07B681B78E8
:106750000D2B06D15C2000F025F9722000F022F903
:1067600016E07B681B780A2B06D15C2000F01AF932
:106770006E2000F017F90BE05C2000F013F9782090
:1067800000F010F97B681B780221184600F068F8C9
:1067900000BF0837BD4680BD80B584B000AF7860CB
:1067A0007B68FB60FB68002B0AD005E0F868FFF708
:1067B000BBFFFB680133FB60FB681B78002BF5D146
:1067C00000BF1037BD4680BD80B584B000AF786093
:1067D0007B68FB607B68002B05DA2D2000F0E2F877
:1067E000FB685B42FB60F86800F004F800BF1037FC
:1067F000BD4680BD80B584B000AF78600123FB60EA
:1068000005E0FA6813469B0013445B00FB607A685E
:10681000FB68B2FBF3F3092BF3D87A68FB68B2FB91
:10682000F3F10E4BA3FB0123DA0813469B0013443C
:106830005B00CA1AD3B23033DBB2184600F0B2F8AC
:10684000FB68064AA2FB0323DB08FB60FB68002B06
:10685000E3D100BF1037BD4680BD00BFCDCCCCCC4E
:1068600080B584B000AF78600B46FB70FB78FB739B
:10687000FB7B082B1FD90823FB731CE0FB7B013B30
:10688000FB73FB7B9B007A6822FA03F303F00F0390
:10689000BB60BB68092B07DCBB68DBB23033DBB203
:1068A000184600F07FF806E0BB68DBB23733DBB296
:1068B000184600F077F8FB7B002BDFD100BF1037C4
:1068C000BD4680BD80B483B000AF7860114A7B685C
:1068D0001360104B00225A600E4B00221A610D4BC0
:1068E00000225A610B4B00229A610A4B0022DA61A6
:1068F000084B00221A62074B00225A62054B002205
:106900009A60044B0022DA6000BF0C37BD465DF888
:10691000047B70479823002080B500AF0A2000F068
:1069200041F81948FFF738FF0A2000F03BF8174BF1
:106930005B691846FFF748FF1548FFF72DFF134B1B
:106940009B691846FFF740FF1248FFF725FF0F4BE2
:10695000DB691846FFF738FF0F48FFF71DFF0A20D5
:1069600000F020F8094B9B69002B03D10B48FFF77F
:1069700013FF02E00A48FFF70FFF0A2000F012F8A9
:10698000024B9B69184680BD0C73020098230020BF
:10699000247302002C73020038730200007302009B
:1069A0000473020038B5084B1C68054624B1A3697E
:1069B00013B9204600F04AF8A26829462046BDE8EF
:1069C000384000F027B900BF00230020002310B595
:1069D0000446C0E90033836081814366C281C0E917
:1069E00004338361194608225C30FFF79BFC054B9A
:1069F0006362054BA362054BE362054B246223638C
:106A000010BD00BFA16C0200C36C0200FB6C020051
:106A10001F6D0200014900F085B800BFF96F020048
:106A200070B54A1E682555430E4605F1740100F005
:106A300097F8044640B10021C0E900160C30A06070
:106A400005F16802FFF76EFC204670BD836910B542
:106A5000044633BBC0E912330365124B124A1B686C
:106A60008262984204BF0123836100F01FF86060D6
:106A7000204600F01BF8A060204600F017F8002226
:106A8000E06004216068FFF7A1FF01220921A068EE
:106A9000FFF79CFF02221221E068FFF797FF012316
:106AA000A36110BDD4720200156A0200F8B51B4B39
:106AB0001E68B369074613B93046FFF7C7FF48366B
:106AC000D6E90134013B03D5336833B13668F7E7C3
:106AD000B4F90C506DB16834F4E704213846FFF77F
:106AE0009FFF30600028F1D10C233B600446204614
:106AF000F8BD0B4B6566C4E90055A560C4E90335D4
:106B0000C4E905550822294604F15C00FFF70AFC98
:106B1000C4E90D55C4E91255E9E700BFD47202007B
:106B20000100FFFF2DE9F8438046894600F1480443
:106B3000002614B93046BDE8F883D4E90175013F59
:106B400001D52468F5E7AB89012B07D9B5F90E30DB
:106B5000013303D029464046C84706436835EEE76F
:106B600070B5CD1C25F0030508350C2D38BF0C255C
:106B7000002D064601DBA94203D90C233360002017
:106B800070BD00F0D9FA214A1468214691B9204C11
:106B900023681BB9304600F073F820602946304660
:106BA00000F06EF8431C24D10C233360304600F013
:106BB000C4FAE4E70B685B1B18D40B2B0FD90B60EE
:106BC000CD50CC18304600F0B8FA04F10B00231D6C
:106BD00020F00700C31AD3D05A42E250D0E78C42CB
:106BE0004B6816BF636013600C46EBE70C464968C0
:106BF000CCE7C41C24F00304A04205D0211A30467F
:106C000000F03EF80130CFD02560DBE78C23002078
:106C10009023002070B50D461446064618B18369CE
:106C20000BB9FFF713FF134B9C4212D17468A36892
:106C3000013B002BA36016DAA269934202DBEBB2A0
:106C40000A2B10D1224629463046BDE8704000F09C
:106C50006BB8094B9C4201D1B468E8E7074B9C42F2
:106C600008BFF468E3E723685A1C22601D70E8B28D
:106C700070BD00BF6473020084730200447302009D
:106C800038B5064C002305460846236000F000FB9B
:106C9000431C02D1236803B12B6038BD1C240020A3
:106CA00010B50C46B1F90E1000F096FA0028ABBFF3
:106CB000636DA3891B1823F48053ACBF6365A38164
:106CC00010BD2DE9F0411F468B89DB0505460C46BA
:106CD000164605D502230022B1F90E1000F0B6F9D0
:106CE000A389B4F90E1023F48053A38132463B46A6
:106CF0002846BDE8F04100F069B810B50C46B1F97E
:106D00000E1000F0A3F9431CA38915BF606523F49E
:106D1000805343F48053A38118BFA38110BDB1F900
:106D20000E1000F0D3B80000F8B50E461446054624
:106D300018B183690BB9FFF789FE214B9C422AD118
:106D40006C68A369A360A3891A072ED5236963B36E
:106D500023692068C01A6369F6B28342374604DCAF
:106D60002146284600F048F928BBA368013BA360F0
:106D700023685A1C22601E7063690130834204D06C
:106D8000A389DB0719D50A2E17D12146284600F022
:106D900033F990B10FE00B4B9C4201D1AC68D0E7C6
:106DA000094B9C4208BFEC68CBE72146284600F01F
:106DB0001FF80028CCD04FF0FF373846F8BD00BF91
:106DC00064730200847302004473020038B5074CF8
:106DD000054608461146002222601A4600F066FA6F
:106DE000431C02D1236803B12B6038BD1C24002052
:106DF000324B70B51D6806460C4625B1AB6913B918
:106E00002846FFF723FE2E4B9C420FD16C68B4F945
:106E10000C309AB215072CD4D00611D40922326056
:106E200043F04003A3814FF0FF303EE0254B9C42EE
:106E300001D1AC68EBE7244B9C4208BFEC68E6E765
:106E4000510712D5616B41B104F14403994202D05C
:106E5000304600F073F900236363A38923F0240311
:106E6000A3810023636023692360A38943F008039F
:106E7000A38123694BB9A38903F42073B3F5007F81
:106E800003D02146304600F017F9A28912F0010321
:106E90000CD00023A36063695B42A361236953B9EB
:106EA000B4F90C3013F08000BAD170BD920758BF0E
:106EB0006369A360F2E70020F7E700BF002300202A
:106EC00064730200847302004473020038B5064CF8
:106ED000002305460846236000F0B2F9431C02D1A6
:106EE000236803B12B6038BD1C2400208A892DE95A
:106EF000F041054610070C4658D44B68002B05DCC2
:106F00000B6C002B02DC0020BDE8F081E66A002E4D
:106F1000F9D0002312F480522F68216A2B6032D0FE
:106F2000606DA3895A0705D56368C01A636B0BB1FE
:106F3000236CC01A00230246E66A216A2846B0473D
:106F4000431CA38906D129681D2948D8294ACA406B
:106F5000D60744D500226260D9042269226004D594
:106F6000421C01D12B6803B96065616B2F60002959
:106F7000C9D004F14403994202D0284600F0DEF85B
:106F800000206063C0E701232846B047411CC8D1F8
:106F90002B68002BC5D01D2B01D0162B01D12F60E3
:106FA000B1E7A38943F04003A381ADE70F69002F48
:106FB000A9D093070E6808BF4B690F6018BF002364
:106FC000A6EB07088B60B8F1000F9CDD43463A46FC
:106FD000216AA66A2846B047002806DCA38943F048
:106FE0004003A3814FF0FF308EE70744A8EB000871
:106FF000E9E700BF0100402038B50B6905460C46A3
:10700000DBB118B183690BB9FFF720FD0C4B9C4233
:1070100009D16C68B4F90C307BB121462846BDE833
:107020003840FFF763BF074B9C4201D1AC68F1E7E2
:10703000054B9C4208BFEC68ECE7002038BD00BF60
:1070400064730200847302004473020038B5074C75
:10705000054608461146002222601A4600F008F94B
:10706000431C02D1236803B12B6038BD1C240020CF
:1070700070B50E46B1F90E10002996B014461D46A3
:1070800007DA00232B60B3891A0610D44FF480630B
:107090000EE06A4600F0B2F80028F2DB019A02F432
:1070A0007042A2F500535A425A412A60EEE740234B
:1070B0000020236016B070BD8B8973B59D0706460E
:1070C0000C4607D504F14703236023610123636164
:1070D00002B070BD01AB6A46FFF7CAFF00990546D2
:1070E0003046FFF73DFD48B9B4F90C309A05EFD4AE
:1070F00023F0030343F00203A381E3E70D4BB362E4
:10710000A389206043F08003A381009B6361019BFE
:1071100020615BB1B4F90E10304600F081F828B15F
:10712000A38923F0030343F00103A381A3891D4333
:10713000A581CDE7156A02007047704738B505464E
:10714000002945D051F8043C0C1F002BB8BFE418AF
:10715000FFF7F2FF1F4A1368104633B963601460EB
:107160002846BDE83840FFF7E8BFA3420CD92168A4
:107170006218934204BF1A685B68636004BF5218C8
:1071800022600460ECE713465A680AB1A242FAD9B9
:1071900019685818A0420BD120680144581882423F
:1071A0001960DDD1106852685A6001441960D7E750
:1071B00002D90C232B60D3E7206821188A4204BF30
:1071C00011685268626004BF091821605C60C7E7FB
:1071D00038BD00BF8C23002038B5074C0546084653
:1071E0001146002222601A4600F04AF8431C02D1E0
:1071F000236803B12B6038BD1C24002038B5074C30
:107200000023054608461146236000F021F8431C80
:1072100002D1236803B12B6038BD00BF1C240020BD
:1072200038B5064C002305460846236000F018F8E0
:10723000431C02D1236803B12B6038BD1C240020FD
:10724000024B58221A604FF0FF3070471C24002078
:10725000024B58221A604FF0FF3070471C24002068
:10726000024B58221A600020704700BF1C240020E7
:10727000024B58221A604FF0FF3070471C24002048
:10728000024B58221A604FF0FF3070471C24002038
:10729000044A05491368002B08BF0B4618441060C8
:1072A000184670479423002020240020024B5822C7
:1072B0001A604FF0FF3070471C240020F8B500BF63
:1072C000F8BC08BC9E467047F8B500BFF8BC08BCC7
:1072D0009E467047042300202E2E2F746573742F52
:1072E000746573745F73756974655F312F7372634E
:1072F0002F6D61696E5F74657374312E63000000D9
:107300004F4B00004641494C000000002D2D2D2D13
:107310002D2D2D2D2D2D2D2D2D2D2D2D2D2D2D2D9D
:107320002D2D2D0020546573747320002046616953
:107330006C757265732000002049676E6F7265641A
:10734000200000000000000000000000000000001D
:10735000000000000000000000000000000000002D
:10736000000000000000000000000000000000001D
:10737000000000000000000000000000000000000D
:1073800000000000000000000000000000000000FD
:1073900000000000000000000000000000000000ED
:0873A0000000000000000000E5
:0873A80098EEFF7F01000000D8
:1073B00004230020000000006473020084730200B4
:1073C0004473020000000000000000000000000004
:1073D00000000000000000000000000000000000AD
:1073E000000000000000000000000000000000009D
:1073F000000000000000000000000000000000008D
:10740000000000000000000000000000000000007C
:10741000000000000090D00325620200016202001B
:040000032000635125
:00000001FF
