:020000022000DC
:106000000000012041630200696302006B6302002B
:106010006D6302006F630200716302000000000004
:106020000000000000000000000000007363020098
:1060300075630200000000007763020079630200CC
:106040007B6302007B6302007B6302007B630200D0
:106050007B6302007B6302007B6302007B630200C0
:106060007B6302007B6302007B6302007B630200B0
:106070007B6302007B6302007B6302007B630200A0
:106080007B6302007B6302007B6302007B63020090
:106090007B6302007B6302007B6302007B63020080
:1060A0007B6302007B6302007B6302007B63020070
:1060B0007B6302007B630200000000000000000020
:1060C0007B6302007B6302007B6302007B63020050
:1060D0007B6302007B6302007B6302007B63020040
:1060E0007B6302007B6302007B6302000000000010
:1060F000000000007B630200000000007B630200E0
:10610000000000000000000000000000000000008F
:10611000000000000000000000000000000000007F
:10612000000000000000000000000000000000006F
:10613000000000000000000000000000000000005F
:10614000000000000000000000000000000000004F
:10615000000000000000000000000000000000003F
:10616000000000000000000000000000000000002F
:10617000000000000000000000000000000000001F
:10618000000000000000000000000000000000000F
:1061900000000000000000000000000000000000FF
:1061A00000000000000000000000000000000000EF
:1061B00000000000000000000000000000000000DF
:1061C00000000000000000000000000000000000CF
:1061D00000000000000000000000000000000000BF
:1061E00000000000000000000000000000000000AF
:1061F000000000000000000000000000000000009F
:1062000010B5054C237833B9044B13B10448AFF3F0
:1062100000800123237010BD6C23002000000000CB
:106220003467020008B5034B1BB103490348AFF3C1
:10623000008008BD000000007023002034670200C9
:10624000154B002B08BF134B9D46A3F5803A002148
:106250008B460F461348144A121A00F063F80F4B8E
:10626000002B00D098470E4B002B00D09847002001
:10627000002104000D000D48002802D00C48AFF3A7
:10628000008000F02BF82000290000F055F800F005
:1062900011F800BF0000080000000120000000000D
:1062A000000000006C230020882300200000000074
:1062B0000000000008B5074B044613B10021AFF3FE
:1062C0000080054B1868836A03B19847204600F0A8
:1062D00031F800BF000000003067020070B50D4EBD
:1062E0000D4CA41BA4100025A54209D10B4E0C4C4B
:1062F00000F012FAA41BA4100025A54205D170BD20
:1063000056F8253098470135EEE756F8253098477E
:106310000135F2E764230020642300206423002079
:106320006823002002440346934200D1704703F8DB
:10633000011BF9E7FEE700BF80B400AFFEE70000F5
:106340000649074A074B9B1A03DD043BC858D05047
:10635000FBDC00F021F8FFF773FF0000406702004C
:10636000002300206C230020FEE7FEE7FEE7FEE7A7
:10637000FEE7FEE7FEE7FEE7FEE7FEE780B400AFDC
:10638000034B044A1A6000BFBD465DF8047B7047AA
:10639000602300200090D00380B500AF00F0ECF83F
:1063A0000346002B0ED04FF080430022C3F80C218F
:1063B0004FF080430022C3F810214FF080430022A9
:1063C000C3F8382500F000F90346002B76D04FF0D3
:1063D0008053614AD3F80434C2F820354FF080531B
:1063E0005D4AD3F80834C2F824354FF080535A4A36
:1063F000D3F80C34C2F828354FF08053564AD3F8FE
:106400001034C2F82C354FF08053534AD3F814346B
:10641000C2F830354FF080534F4AD3F81834C2F8E1
:1064200034354FF080534C4AD3F81C34C2F8403511
:106430004FF08053484AD3F82034C2F844354FF027
:106440008053454AD3F82434C2F848354FF080537E
:10645000414AD3F82834C2F84C354FF080533E4AB5
:10646000D3F82C34C2F850354FF080533A4AD3F861
:106470003034C2F854354FF08053374AD3F83434AF
:10648000C2F860354FF08053334AD3F83834C2F83D
:1064900064354FF08053304AD3F83C34C2F8683545
:1064A0004FF080532C4AD3F84034C2F86C354FF08B
:1064B0008053294AD3F84434C2F8703500F0ACF860
:1064C0000346002B02D0254B254A1A6000F0BAF88B
:1064D0000346002B03D0234BFB22C3F8182500F002
:1064E000C7F80346002B0AD01F4B1B6823F00F028E
:1064F0001E4B1B6803F00F031B4913430B6000F096
:10650000CDF80346002B03D0194B4FF400721A60EC
:1065100000F0DAF80346002B0DD04FF08043D3F89B
:10652000003403F00103002B05D04FF080436FF0DF
:106530000102C3F800240F4BD3F888300D4A43F40E
:106540007003C2F88830BFF34F8FBFF36F8FFFF730
:1065500015FF00BF80BD00BF00C000408C5600404A
:106560004881030000F00040E40E00405802001093
:106570004096024000ED00E080B400AF104B1B6875
:10658000082B17D10F4B1B68002B01D1012312E000
:106590000C4B1B68012B01D101230CE0094B1B683C
:1065A000022B01D1012306E0064B1B68032B01D10E
:1065B000012300E001231846BD465DF8047B7047C7
:1065C000300100103401001080B400AF104B1B6884
:1065D000082B17D10F4B1B68002B01D1012312E0B0
:1065E0000C4B1B68012B01D101230CE0094B1B68EC
:1065F000022B01D1012306E0064B1B68032B01D1BE
:10660000012300E001231846BD465DF8047B704776
:10661000300100103401001080B400AF074B1B683C
:10662000082B05D1064B1B68002B01D1012300E08C
:1066300000231846BD465DF8047B7047300100100A
:106640003401001080B400AF074B1B68082B05D144
:10665000064B1B68002B01D1012300E000231846E4
:10666000BD465DF8047B7047300100103401001016
:1066700080B400AF074B1B68082B05D1064B1B6885
:10668000002B01D1012300E000231846BD465DF830
:10669000047B7047300100103401001080B400AF5B
:1066A000074B1B68082B05D1064B1B68002B01D13B
:1066B000012300E000231846BD465DF8047B7047C7
:1066C000300100103401001080B400AF104B1B6883
:1066D000082B17D10F4B1B68002B01D1012312E0AF
:1066E0000C4B1B68012B01D101230CE0094B1B68EB
:1066F000022B01D1012306E0064B1B68032B01D1BD
:10670000012300E001231846BD465DF8047B704775
:106710003001001034010010F8B500BFF8BC08BC0F
:106720009E467047F8B500BFF8BC08BC9E4670474F
:0867300000230020000000001E
:0867380008FBFF7F01000000D7
:106740000000000000000000000000000000000049
:106750000000000000000000000000000000000039
:106760000000000000000000000000000000000029
:106770000000000000000000000000000000000019
:106780000000000000000000000000000000000009
:1067900000000000000000000000000000000000F9
:0C67A0000090D00325620200016202009C
:040000032000634135
:00000001FF
