:020000022000DC
:10600000000001205D6302008563020087630200D7
:10601000896302008B6302008D63020000000000B0
:106020000000000000000000000000008178020075
:10603000916302000000000091790200F9790200EA
:106040009763020097630200976302009763020060
:106050009763020097630200976302009763020050
:106060009763020097630200976302009763020040
:106070009763020097630200976302009763020030
:106080009763020097630200976302009763020020
:106090009763020097630200976302009763020010
:1060A0009763020097630200976302009763020000
:1060B00097630200976302000000000000000000E8
:1060C00097630200976302009763020097630200E0
:1060D00097630200976302009763020097630200D0
:1060E00097630200976302009763020000000000BC
:1060F00000000000976302000000000097630200A8
:10610000000000000000000000000000000000008F
:10611000000000000000000000000000000000007F
:10612000000000000000000000000000000000006F
:10613000000000000000000000000000000000005F
:10614000000000000000000000000000000000004F
:10615000000000000000000000000000000000003F
:10616000000000000000000000000000000000002F
:10617000000000000000000000000000000000001F
:10618000000000000000000000000000000000000F
:1061900000000000000000000000000000000000FF
:1061A00000000000000000000000000000000000EF
:1061B00000000000000000000000000000000000DF
:1061C00000000000000000000000000000000000CF
:1061D00000000000000000000000000000000000BF
:1061E00000000000000000000000000000000000AF
:1061F000000000000000000000000000000000009F
:1062000010B5054C237833B9044B13B10448AFF3F0
:1062100000800123237010BD7023002000000000C7
:10622000EC86020008B5034B1BB103490348AFF3EA
:10623000008008BD0000000074230020EC860200EE
:10624000154B002B08BF134B9D46A3F5803A002148
:106250008B460F461348144A121A00F063F80F4B8E
:10626000002B00D098470E4B002B00D09847002001
:10627000002104000D000D48002802D00C48AFF3A7
:10628000008000F02BF82000290000F055F800F005
:1062900011F800BF0000080000000120000000000D
:1062A0000000000070230020088C00200000000087
:1062B0000000000008B5074B044613B10021AFF3FE
:1062C0000080054B1868836A03B19847204600F0A8
:1062D00031F800BF00000000D086020070B50D4EFE
:1062E0000D4CA41BA4100025A54209D10B4E0C4C4B
:1062F00002F0E2F9A41BA4100025A54205D170BD4F
:1063000056F8253098470135EEE756F8253098477E
:106310000135F2E76823002068230020682300206D
:106320006C23002002440346934200D1704703F8D7
:10633000011BF9E7FEE700BF80B500AF00F024FBCA
:10634000FEE780B483B000AF78603960FEE780B4C8
:1063500000AF00BFBD465DF8047B70470649074AA1
:10636000074B9B1A03DD043BC858D050FBDC00F000
:1063700021F8FFF765FF0000F886020000230020E7
:1063800070230020FEE7FEE7FEE7FEE7FEE7FEE7FC
:10639000FEE7FEE7FEE7FEE780B400AF034B044AEA
:1063A0001A6000BFBD465DF8047B70476023002083
:1063B0000090D00380B500AF00F0ECF80346002B4E
:1063C0000ED04FF080430022C3F80C214FF08043E1
:1063D0000022C3F810214FF080430022C3F8382573
:1063E00000F000F90346002B76D04FF08053614A4D
:1063F000D3F80434C2F820354FF080535D4AD3F807
:106400000834C2F824354FF080535A4AD3F80C347C
:10641000C2F828354FF08053564AD3F81034C2F8EA
:106420002C354FF08053534AD3F81434C2F830352A
:106430004FF080534F4AD3F81834C2F834354FF038
:1064400080534C4AD3F81C34C2F840354FF0805387
:10645000484AD3F82034C2F844354FF08053454AB7
:10646000D3F82434C2F848354FF08053414AD3F86A
:106470002834C2F84C354FF080533E4AD3F82C34C0
:10648000C2F850354FF080533A4AD3F83034C2F84E
:1064900054354FF08053374AD3F83434C2F860355E
:1064A0004FF08053334AD3F83834C2F864354FF094
:1064B0008053304AD3F83C34C2F868354FF08053EB
:1064C0002C4AD3F84034C2F86C354FF08053294A37
:1064D000D3F84434C2F8703500F0ACF80346002B12
:1064E00002D0254B254A1A6000F0BAF80346002B6B
:1064F00003D0234BFB22C3F8182500F0C7F803464E
:10650000002B0AD01F4B1B6823F00F021E4B1B6889
:1065100003F00F031B4913430B6000F0CDF8034653
:10652000002B03D0194B4FF400721A6000F0DAF818
:106530000346002B0DD04FF08043D3F8003403F016
:106540000103002B05D04FF080436FF00102C3F828
:1065500000240F4BD3F888300D4A43F47003C2F87F
:106560008830BFF34F8FBFF36F8FFFF715FF00BF6A
:1065700080BD00BF00C000408C5600404881030031
:1065800000F00040E40E0040580200104096024027
:1065900000ED00E080B400AF104B1B68082B17D152
:1065A0000F4B1B68002B01D1012312E00C4B1B6821
:1065B000012B01D101230CE0094B1B68022B01D1F7
:1065C000012306E0064B1B68032B01D1012300E0E9
:1065D00001231846BD465DF8047B7047300100106A
:1065E0003401001080B400AF104B1B68082B17D18A
:1065F0000F4B1B68002B01D1012312E00C4B1B68D1
:10660000012B01D101230CE0094B1B68022B01D1A6
:10661000012306E0064B1B68032B01D1012300E098
:1066200001231846BD465DF8047B70473001001019
:106630003401001080B400AF074B1B68082B05D154
:10664000064B1B68002B01D1012300E000231846F4
:10665000BD465DF8047B7047300100103401001026
:1066600080B400AF074B1B68082B05D1064B1B6895
:10667000002B01D1012300E000231846BD465DF840
:10668000047B7047300100103401001080B400AF6B
:10669000074B1B68082B05D1064B1B68002B01D14B
:1066A000012300E000231846BD465DF8047B7047D7
:1066B000300100103401001080B400AF074B1B689C
:1066C000082B05D1064B1B68002B01D1012300E0EC
:1066D00000231846BD465DF8047B7047300100106A
:1066E0003401001080B400AF104B1B68082B17D189
:1066F0000F4B1B68002B01D1012312E00C4B1B68D0
:10670000012B01D101230CE0094B1B68022B01D1A5
:10671000012306E0064B1B68032B01D1012300E097
:1067200001231846BD465DF8047B70473001001018
:106730003401001080B58CB004AFF860B9607A60A5
:106740003B607B689B00184601F0A4F978617B6987
:10675000002B0ED0542001F09DF9F861FB69002B4D
:1067600003D0FB697A691A6305E0786901F032FAAF
:1067700001E00023FB61FB69002B13D0002303938E
:10678000FB690293FB6A0193BB6A00933B687A68DA
:10679000B968F86800F00EF8F86900F08BF801238A
:1067A000BB6102E04FF0FF33BB61BB691846203785
:1067B000BD4680BD80B586B000AFF860B9607A6034
:1067C0003B60BB6A186B7B689B001A46A521FFF7EC
:1067D000A9FDBB6A1A6B7B6803F18043013B9B00F8
:1067E00013443B613B6923F007033B61BB68002B0B
:1067F0001FD000237B6112E0BA687B6913441978CB
:10680000BA6A7B69134434330A461A70BA687B69E2
:1068100013441B78002B06D07B6901337B617B69B5
:106820000F2BE9D900E000BFBB6A002283F84320A8
:1068300003E0BB6A002283F834203B6A032B01D9B2
:1068400003233B62BB6A3A6ADA62BB6A3A6A5A64F9
:10685000BB6A00229A64BB6A0433184601F0D6FA78
:10686000BB6A1833184601F0D1FABB6ABA6A1A61DA
:106870003B6AC3F10402BB6A9A61BB6ABA6A5A6294
:10688000BB6A0022DA64BB6A002283F850203A68AF
:10689000F968386900F0A8FF0246BB6A1A607B6A93
:1068A000002B02D07B6ABA6A1A6000BF1837BD4657
:1068B00080BD000080B582B000AF786001F032F892
:1068C0002A4B1B680133294A1360294B1B68002B94
:1068D00009D1274A7B681360244B1B68012B10D118
:1068E00000F030FB0DE0234B1B68002B09D1204B3F
:1068F0001B68DA6A7B68DB6A9A4202D81C4A7B68AA
:1069000013601D4B1B6801331B4A13607B68DB6AF5
:1069100001229A40194B1B681343184A13607B6885
:10692000DA6A13469B0013449B00154A1A447B689D
:1069300004331946104601F076FA01F00DF80D4BBC
:106940001B68002B0ED00A4B1B68DA6A7B68DB6A77
:106950009A4207D20B4B4FF080521A60BFF34F8F11
:10696000BFF36F8F00BF0837BD4680BD50240020A5
:106970008C2300205C2400206C240020582400205C
:106980009023002004ED00E080B584B002AF164BE8
:1069900001930023009300233C2214491448FFF77D
:1069A000C9FE78607B68012B02D100F04FFC786053
:1069B0007B68012B14D14FF0020383F31188BFF3DE
:1069C0006F8FBFF34F8F3B600A4B4FF0FF321A605F
:1069D000094B01221A60094B00221A6000F078FF6F
:1069E00000BF0837BD4680BD74240020D486020055
:1069F000356F0200702400205C2400205424002005
:106A000080B400AF044B1B680133034A136000BF1E
:106A1000BD465DF8047B70477824002080B584B0C3
:106A200000AF0023FB600023BB6000F07BFF394B0D
:106A30001B68013B374A1360364B1B68002B61D142
:106A4000354B1B68002B5DD02EE0344BDB68DB68D8
:106A5000FB60FB681833184601F042FAFB68043308
:106A6000184601F03DFAFB68DB6A01229A402C4B84
:106A70001B6813432A4A1360FB68DA6A13469B00BB
:106A800013449B00274A1A44FB68043319461046F6
:106A900001F0C9F9FB68DA6A234B1B68DB6A9A428A
:106AA00002D3224B01221A601C4B1B68002BCCD155
:106AB000FB68002B01D000F0C1FA1D4B1B687B6006
:106AC0007B68002B10D000F047F80346002B02D063
:106AD000164B01221A607B68013B7B607B68002BB0
:106AE000F1D1134B00221A60104B1B68002B09D008
:106AF0000123BB600F4B4FF080521A60BFF34F8FE2
:106B0000BFF36F8F00F028FFBB6818461037BD46F3
:106B100080BD00BF782400205024002010240020D5
:106B200058240020902300208C230020642400207F
:106B30006024002004ED00E080B483B000AF054B7A
:106B40001B687B607B6818460C37BD465DF8047B8C
:106B5000704700BF5424002080B586B000AF0023EA
:106B60007B61464B1B68002B7DD1454B1B68013375
:106B70003B61434A3B6913603B69002B10D1414B99
:106B80001B68FB60404B1B683E4A13603E4AFB6833
:106B900013603E4B1B6801333C4A136000F04EFA11
:106BA0003B4B1B683A699A4248D3364B1B681B68BB
:106BB000002B04D1364B4FF0FF321A603EE0314BD0
:106BC0001B68DB68DB68BB60BB685B687B603A693D
:106BD0007B689A4203D22E4A7B6813602EE0BB6822
:106BE0000433184601F07CF9BB689B6A002B04D083
:106BF000BB681833184601F073F9BB68DB6A0122E1
:106C00009A40244B1B681343224A1360BB68DA6A1C
:106C100013469B0013449B001F4A1A44BB6804336D
:106C20001946104601F0FFF8BB68DA6A1B4B1B6877
:106C3000DB6A9A42B9D301237B61B6E7174B1B6825
:106C4000DA6A154913469B0013449B000B441B68EA
:106C5000012B01D901237B61114B1B68002B07D04D
:106C600001237B6104E00F4B1B6801330D4A136065
:106C70007B6918461837BD4680BD00BF78240020C8
:106C800054240020082400200C2400206824002024
:106C90007024002058240020902300208C23002002
:106CA000642400206024002080B584B000AF244B11
:106CB0001B68002B03D0234B01221A603BE0214BC1
:106CC00000221A60204B1B681A681F4B1B681B6B45
:106CD0009A4208D81C4B1A681B4B1B683433194660
:106CE0001046FFF72EFB194B1B687B607B68B3FADD
:106CF00083F3FB70FB78C3F11F03FB60FA68134654
:106D00009B0013449B00124A1344BB60BB685B6842
:106D10005A68BB685A60BB685A68BB6808339A42B5
:106D200004D1BB685B685A68BB685A60BB685B6823
:106D3000DB68054A136000BF1037BD4680BD00BF49
:106D400078240020642400208C2300205824002074
:106D50009023002080B582B000AF78603960074B87
:106D60001B6818331946786801F081F801213868EA
:106D700000F006FA00BF0837BD4680BD8C23002016
:106D800080B584B000AFF860B9607A600A4B1B68C8
:106D900018331946F86801F046F87B68002B02D0DA
:106DA0004FF0FF33BB607968B86800F0E9F900BFC5
:106DB0001037BD4680BD00BF8C23002080B584B055
:106DC00000AF78607B68DB68DB68BB60BB6818334A
:106DD000184601F085F81D4B1B68002B1CD1BB68C1
:106DE0000433184601F07CF8BB68DB6A01229A4044
:106DF000174B1B681343164A1360BB68DA6A1346C5
:106E00009B0013449B00134A1A44BB680433194681
:106E1000104601F008F805E0BB68183319460E4823
:106E200001F001F8BB68DA6A0C4B1B68DB6A9A4216
:106E300005D90123FB600A4B01221A6001E00023FF
:106E4000FB60FB6818461037BD4680BD78240020E3
:106E50005824002090230020102400208C230020A0
:106E60006424002080B483B000AF7860064B1A68B9
:106E70007B681A60054B1A687B685A6000BF0C3744
:106E8000BD465DF8047B7047682400205424002030
:106E900080B586B000AF7860396000F043FD1D4BCF
:106EA0001B683B617B685B683A69D31AFB603B688F
:106EB0001B68B3F1FF3F02D100237B6123E07B68B5
:106EC0001A68154B1B689A4207D07B685B683A6961
:106ED0009A4202D301237B6115E03B681B68FA6884
:106EE0009A420BD23B681A68FB68D21A3B681A6058
:106EF0007868FFF7B7FF00237B6104E03B6800225E
:106F00001A6001237B6100F027FD7B691846183762
:106F1000BD4680BD542400206824002080B400AF0A
:106F2000034B01221A6000BFBD465DF8047B704729
:106F30006424002080B582B000AF786000F042F891
:106F4000FCE7000080B582B000AF00237B600CE05E
:106F50007A6813469B0013449B00124A1344184658
:106F600000F034FF7B6801337B607B68032BEFD933
:106F70000D4800F02BFF0D4800F028FF0C4800F0F2
:106F800025FF0C4800F022FF0B4800F01FFF0B4BC1
:106F9000054A1A600A4B054A1A6000BF0837BD4609
:106FA00080BD00BF90230020E0230020F4230020B8
:106FB00010240020242400203C2400200824002049
:106FC0000C24002080B582B000AF19E000F0AAFCCC
:106FD0000F4BDB68DB687B607B680433184600F08E
:106FE0007FFF0C4B1B68013B0A4A13600A4B1B686E
:106FF000013B094A136000F0AFFC786800F00EF81E
:10700000054B1B68002BE1D100BF0837BD4680BD92
:1070100024240020502400203824002080B582B091
:1070200000AF78607B681B6B184600F0D3FD786872
:1070300000F0D0FD00BF0837BD4680BD80B483B0EE
:1070400000AF0C4B1B681B68002B04D10A4B4FF0A0
:10705000FF321A6008E0074B1B68DB68DB687B6067
:107060007B685B68044A136000BF0C37BD465DF85F
:10707000047B7047082400207024002080B483B073
:1070800000AF0B4B1B68002B02D101237B6008E093
:10709000084B1B68002B02D102237B6001E0002318
:1070A0007B607B6818460C37BD465DF8047B7047F3
:1070B0005C2400207824002080B584B000AF786084
:1070C0007B68BB600023FB607B68002B4FD0BB68F4
:1070D0009B6C5A1EBB689A64BB68DA6ABB685B6CBF
:1070E0009A4244D0BB689B6C002B40D1BB680433F0
:1070F000184600F0F5FE0346002B15D1BB68DA6A8E
:107100001D4913469B0013449B000B441B68002B36
:107110000AD1BB68DB6A012202FA03F3DA43174B98
:107120001B681340154A1360BB685A6CBB68DA626F
:10713000BB68DB6AC3F10402BB689A61BB68DB6AA7
:1071400001229A400D4B1B6813430C4A1360BB6825
:10715000DA6A13469B0013449B00074A1A44BB6833
:1071600004331946104600F05EFE0123FB60FB6805
:1071700018461037BD4680BD9023002058240020BB
:1071800080B584B000AF78603960294B1B68FB6024
:10719000284B1B680433184600F0A2FE0346002B60
:1071A0000BD1244B1B68DB6A012202FA03F3DA439A
:1071B000214B1B681340204A13607B68B3F1FF3FEB
:1071C0000AD13B68002B07D01A4B1B6804331946C1
:1071D0001A4800F028FE26E0FA687B681344BB607A
:1071E000144B1B68BA685A60BA68FB689A4209D2A5
:1071F000134B1A680F4B1B6804331946104600F0F6
:1072000036FE10E00F4B1A680A4B1B680433194610
:10721000104600F02CFE0C4B1B68BA689A4202D252
:10722000094ABB68136000BF1037BD4680BD00BF70
:10723000542400208C230020582400203C240020CB
:107240000C240020082400207024002080B584B085
:1072500002AF00237B6000F091FA0A4B1B68002B01
:107260000BD0094B01930223009300234FF480724B
:1072700006490748FFF75EFA78607B6818460837CA
:10728000BD4680BDAC240020B0240020DC86020076
:107290009573020080B58AB000AFF860B9607A607B
:1072A0003B6000237B621A4B1B68002B2AD0BB6813
:1072B0007B617B68BB61FB68FB61BB68052B18DCED
:1072C000FFF7DCFE0346022B09D1114B186807F1CA
:1072D000140100233A6B00F0CFFE786212E00C4BF1
:1072E000186807F114010023002200F0C5FE78623F
:1072F00008E0074B186807F1140100233A6800F012
:1073000065FF78627B6A18462837BD4680BD00BF9E
:10731000AC24002080B586B002AF786039601C4B89
:107320001B68DB68DB68FB60FB680433184600F011
:10733000D7FDFB6893F8243003F00403002B15D02D
:10734000FB689A697B68D1187B683A68F86800F036
:10735000C5F80346002B12D00023009300237A685F
:107360000021F868FFF796FFB86008E0FB6893F823
:10737000243023F00103DAB2FB6883F82420FB6891
:107380001B6AF868984700BF1037BD4680BD00BF34
:10739000A424002080B584B000AF786007F1080312
:1073A000184600F057F8F860BB681946F86800F016
:1073B00003F800F0D5F8F1E780B584B000AF78604D
:1073C0003960FFF71DFB07F10803184600F066F867
:1073D000F860BB68002B30D13B68002B0AD17A687B
:1073E000FB689A4206D8FFF719FBF9687868FFF73F
:1073F00091FF24E03B68002B08D0134B1B681B68EF
:10740000002B01D1012300E000233B600F4B1868E3
:107410007A68FB68D31A3A68194601F00DF9FFF74C
:10742000FDFA0346002B0AD1094B4FF080521A6037
:10743000BFF34F8FBFF36F8F01E0FFF7EFFA00BF8D
:107440001037BD4680BD00BFA8240020AC2400201A
:1074500004ED00E080B485B000AF78600E4B1B688F
:107460001B68002B01D1012200E000227B681A601A
:107470007B681B68002B05D1074B1B68DB681B680A
:10748000FB6001E00023FB60FB6818461437BD4633
:107490005DF8047B704700BFA424002080B584B051
:1074A00000AF7860FFF748FBF8600B4B1B68FA6889
:1074B0009A4205D200F00CF97B6801221A6002E0C2
:1074C0007B6800221A60044AFB681360FB68184658
:1074D0001037BD4680BD00BFB424002080B586B003
:1074E00000AFF860B9607A603B6000237B61FB68A5
:1074F000BA685A60FB68FA681A61BA687B689A428F
:1075000012D87A683B68D21AFB689B699A4202D308
:1075100001237B611BE0104B1A68FB68043319469A
:10752000104600F0A4FC12E07A683B689A4206D24A
:10753000BA683B689A4202D301237B6107E0074B9C
:107540001A68FB6804331946104600F090FC7B690A
:1075500018461837BD4680BDA8240020A42400206A
:1075600080B58CB002AFA0E0BB68002B0BDA07F14E
:10757000080304337B627B6A1B687A6A50687A6A04
:10758000926811469847BB68002BC0F28D803B691A
:107590003B623B6A5B69002B04D03B6A04331846AC
:1075A00000F09EFC3B1D1846FFF778FFF861BB68B2
:1075B000092B7AD801A252F823F000BFE57502002A
:1075C000E5750200E57502003F7602005376020081
:1075D0007F760200E5750200E57502003F76020045
:1075E000537602003B6A93F8243043F00103DAB289
:1075F0003B6A83F82420FA683B6A9B69D118FB68D0
:10760000FA69386AFFF76AFF0346002B4DD03B6AE0
:107610001B6A386A98473B6A93F8243003F00403E6
:10762000002B42D0FA683B6A9B691A4400230093FE
:1076300000230021386AFFF72DFEB86135E03B6A70
:1076400093F8243023F00103DAB23B6A83F8242054
:107650002BE03B6A93F8243043F00103DAB23B6A33
:1076600083F82420FA683B6A9A613B6A9A69FB694D
:10767000D118FB69FA69386AFFF730FF15E03B6AF9
:1076800093F8243003F00203002B03D1386A00F092
:10769000A1FA0AE03B6A93F8243023F00103DAB23E
:1076A0003B6A83F8242000E000BF084B1B6807F109
:1076B00008010022184600F0E5FD0346002B7FF488
:1076C00053AF00BF2837BD4680BD00BFAC240020AB
:1076D00080B588B002AF3AE0264B1B68DB681B68B8
:1076E0003B61244B1B68DB68DB68FB60FB68043391
:1076F000184600F0F5FBFB681B6AF8689847FB68C2
:1077000093F8243003F00403002B20D0FB689B691E
:107710003A691344BB60BA683B699A420ED9FB6868
:10772000BA685A60FB68FA681A61124B1A68FB68FB
:1077300004331946104600F09AFB08E0002300933A
:1077400000233A690021F868FFF7A4FD7860094B2F
:107750001B681B68002BBFD1064B1B687B61064B67
:107760001B68044A1360044A7B69136000BF183722
:10777000BD4680BDA4240020A824002080B500AF11
:1077800000F0D0F8124B1B68002B1DD1114800F0FF
:107790001DFB114800F01AFB104B0E4A1A60104BEB
:1077A0000D4A1A6000221021202000F01DFC024624
:1077B000074B1A60064B1B68002B05D0044B1B6857
:1077C0000849184600F010FF00F0C6F800BF80BD61
:1077D000AC2400207C24002090240020A42400203D
:1077E000A8240020E486020080B485B000AFF860D1
:1077F000B9607A60FB68043BFB60FB684FF0807205
:107800001A60FB68043BFB60BB6823F00102FB6865
:107810001A60FB68043BFB600C4AFB681A60FB685B
:10782000143BFB607A68FB681A60FB68043BFB60F2
:10783000FB686FF002021A60FB68203BFB60FB688C
:1078400018461437BD465DF8047B70475178020036
:1078500080B483B000AF00233B604FF0020383F39A
:107860001188BFF36F8FBFF34F8F7B6000BF3B6802
:10787000002BFCD000BF0C37BD465DF8047B704781
:10788000074B19680868B0E8F04F80F30988BFF328
:107890006F8F4FF0000080F311887047AFF30080C6
:1078A0008C23002000BF00BF08480068006880F3F8
:1078B00008884FF0000080F3148862B661B6BFF309
:1078C0004F8FBFF36F8F00DF00BF00BF08ED00E0F8
:1078D00080B500AF104B1B680F4A43F47023136050
:1078E0000D4B1B680C4A43F07063136000F0A4F862
:1078F0000A4B00221A6000F0C3F8094B1B68084AC3
:1079000043F040431360FFF7CFFFFFF7CDF9FFF7D8
:107910009FFF0023184680BD20ED00E06423002077
:1079200034EF00E080B483B000AF4FF0020383F384
:107930001188BFF36F8FBFF34F8F7B60054B1B68C0
:107940000133044A136000BF0C37BD465DF8047B69
:10795000704700BF6423002080B483B000AF0A4B9F
:107960001B68013B084A1360074B1B68002B04D1BE
:1079700000237B607B6883F3118800BF0C37BD4612
:107980005DF8047B704700BF642300200000000006
:10799000EFF30980BFF36F8F154B1A681EF0100FBD
:1079A00008BF20ED108A20E9F04F10602DE9090092
:1079B0004FF0020080F31188BFF34F8FBFF36F8F3A
:1079C000FFF772F94FF0000080F3118809BC1968C5
:1079D0000868B0E8F04F1EF0100F08BFB0EC108A36
:1079E00080F30988BFF36F8F704700BFAFF300804B
:1079F0008C23002000BF00BF80B582B000AF4FF0E5
:107A0000020383F31188BFF36F8FBFF34F8F7B6047
:107A1000FFF7A2F80346002B03D0064B4FF080522D
:107A20001A6000233B603B6883F3118800BF08376E
:107A3000BD4680BD04ED00E080B400AF0B4B0022DA
:107A40001A600B4B00221A600A4B1B680A4AA2FB01
:107A500003239B09094A013B1360044B07221A6068
:107A600000BFBD465DF8047B704700BF10E000E03A
:107A700018E000E060230020D34D621014E000E025
:107A8000DFF80C00016841F470010160704700BF2D
:107A900088ED00E080B586B000AF78600023FB6021
:107AA000FEF7AEFF454B1B68002B01D100F0D2F86A
:107AB000434B1A687B681340002B72D17B68002B04
:107AC0000DD008227B6813447B607B6803F00703BA
:107AD000002B04D07B6823F0070308337B607B68AE
:107AE000002B5ED0374B1B687A689A4259D8364BC8
:107AF0003B61354B1B687B6104E07B693B617B69C3
:107B00001B687B617B695B687A689A4203D97B69F1
:107B10001B68002BF1D1294B1B687A699A4240D02F
:107B20003B691B6808221344FB607B691A683B6948
:107B30001A607B695A687B68D21A08235B009A42F4
:107B40000FD97A697B681344BB607B695A687B688C
:107B5000D21ABB685A607B697A685A60B86800F0CC
:107B6000DBF8184B1A687B695B68D31A154A1360F7
:107B7000144B1A68154B1B689A4203D2114B1B68B1
:107B8000124A13607B695A680D4B1B681A437B6964
:107B90005A607B6900221A600D4B1B6801330C4A46
:107BA0001360FEF73BFFFB68002B01D1FEF7CFFB14
:107BB000FB6818461837BD4680BD00BFE08B00202B
:107BC000F48B0020E48B0020D88B0020E88B002071
:107BD000EC8B002080B584B000AF78607B68FB60E0
:107BE0007B68002B2CD008235B42FA681344FB60AF
:107BF000FB68BB60BB685A68134B1B681340002BC3
:107C00001ED0BB681B68002B1AD1BB685A680E4B8C
:107C10001B68DB431A40BB685A60FEF7F1FEBB6885
:107C20005A680A4B1B681344084A1360B86800F08E
:107C300073F8074B1B680133054A1360FEF7EEFE2D
:107C400000BF1037BD4680BDF48B0020E48B0020C0
:107C5000F08B002080B485B000AF46F22073BB608B
:107C6000274BFB60FB6803F00703002B0CD0FB687D
:107C70000733FB60FB6823F00703FB60BA68FB680F
:107C8000D31A1F4A1344BB60FB687B601D4A7B68A4
:107C900013601C4B00225A607B68BA681344FB6077
:107CA0000822FB689B1AFB60FB6823F00703FB605C
:107CB000FB68154A1360144B1B6800225A60124B74
:107CC0001B6800221A607B683B603B68FA68D21A26
:107CD0003B685A600C4B1A683B681A603B685B68EB
:107CE0000A4A13603B685B68094A1360094B4FF00E
:107CF00000421A6000BF1437BD465DF8047B704730
:107D0000B8240020D88B0020E08B0020E88B0020D6
:107D1000E48B0020F48B002080B485B000AF786045
:107D2000284BFB6002E0FB681B68FB60FB681B687C
:107D30007A689A42F7D8FB68BB60FB685B68BA68F0
:107D400013447A689A4208D1FB685A687B685B687A
:107D50001A44FB685A60FB687B607B68BB607B6889
:107D60005B68BA681A44FB681B689A4218D1FB68C2
:107D70001A68154B1B689A420DD07B685A68FB68DD
:107D80001B685B681A447B685A60FB681B681A684A
:107D90007B681A6008E00C4B1A687B681A6003E085
:107DA000FB681A687B681A60FA687B689A4202D09E
:107DB000FB687A681A6000BF1437BD465DF8047B23
:107DC000704700BFD88B0020E08B002080B483B0C8
:107DD00000AF78607B6803F108027B685A607B68BB
:107DE0004FF0FF329A607B6803F108027B68DA602B
:107DF0007B6803F108027B681A617B6800221A60C5
:107E000000BF0C37BD465DF8047B704780B483B07B
:107E100000AF78607B6800221A6100BF0C37BD4656
:107E20005DF8047B704780B485B000AF786039603E
:107E30007B685B68FB603B68FA685A60FB689A681D
:107E40003B689A60FB689B683A685A60FB683A68CE
:107E50009A603B687A681A617B681B685A1C7B6869
:107E60001A6000BF1437BD465DF8047B704780B4CC
:107E700085B000AF786039603B681B68BB60BB6849
:107E8000B3F1FF3F03D17B681B69FB600CE07B68AB
:107E90000833FB6002E0FB685B68FB60FB685B68C3
:107EA0001B68BA689A42F6D2FB685A683B685A6007
:107EB0003B685B683A689A603B68FA689A60FB685E
:107EC0003A685A603B687A681A617B681B685A1C7A
:107ED0007B681A6000BF1437BD465DF8047B7047AD
:107EE00080B485B000AF78607B681B69FB607B68FD
:107EF0005B687A6892689A607B689B687A68526867
:107F00005A60FB685B687A689A4203D17B689A681A
:107F1000FB685A607B6800221A61FB681B685A1E66
:107F2000FB681A60FB681B6818461437BD465DF88D
:107F3000047B704780B584B000AF786039607B689F
:107F4000FB60FFF7EFFCFB681A68FB68DB6BF96806
:107F5000096C01FB03F31A44FB689A60FB6800227A
:107F60009A63FB681A68FB685A60FB681A68FB68CA
:107F7000DB6B013BF968096C01FB03F31A44FB68F6
:107F8000DA60FB68FF2283F84420FB68FF2283F855
:107F900045203B68002B14D1FB681B69002B1AD0CD
:107FA000FB6810331846FEF709FF0346002B12D07A
:107FB0000C4B4FF080521A60BFF34F8FBFF36F8F9F
:107FC00009E0FB6810331846FFF700FFFB68243315
:107FD0001846FFF7FBFEFFF7BFFC012318461037DA
:107FE000BD4680BD04ED00E080B58AB002AFF86008
:107FF000B9601346FB71FB68BA6802FB03F3FB61CF
:10800000FB6948331846FFF745FDB861BB69002B93
:108010000DD0BB697B617B6948337B61FA79BB69B1
:10802000009313467A69B968F86800F005F8BB69EF
:1080300018462037BD4680BD80B584B000AFF860DB
:10804000B9607A60FB70BB68002B03D1BB69BA6969
:108050001A6002E0BB697A681A60BB69FA68DA6381
:10806000BB69BA681A640121B869FFF763FF00BFF2
:108070001037BD4680BD000080B58AB000AFF86003
:10808000B9607A603B6000237B62FB683B62FFF76C
:1080900049FC3B6A9A6B3B6ADB6B9A4202D33B68B2
:1080A000022B29D13A68B968386A00F08DF9F86175
:1080B0003B6A5B6A002B10D03B6A24331846FEF7FC
:1080C0007DFE0346002B13D03F4B4FF080521A60C9
:1080D000BFF34F8FBFF36F8F0AE0FB69002B07D010
:1080E000394B4FF080521A60BFF34F8FBFF36F8F41
:1080F000FFF732FC012363E07B68002B03D1FFF71D
:108100002BFC00235CE07B6A002B06D107F11403F3
:108110001846FEF7A7FE01237B62FFF71DFCFEF762
:108120006FFCFFF7FFFB3B6A93F844305BB2B3F19F
:10813000FF3F03D13B6A002283F844203B6A93F857
:1081400045305BB2B3F1FF3F03D13B6A002283F8B5
:108150004520FFF701FC3A1D07F1140311461846AC
:10816000FEF796FE0346002B24D1386A00F024FA6D
:108170000346002B18D03B6A10337A681146184624
:10818000FEF7E8FD386A00F0AFF9FEF747FC03465A
:10819000002B7FF47CAF0C4B4FF080521A60BFF382
:1081A0004F8FBFF36F8F72E7386A00F09DF9FEF7CB
:1081B00035FC6CE7386A00F097F9FEF72FFC0023D6
:1081C00018462837BD4680BD04ED00E080B58CB070
:1081D00000AFF860B9607A603B60FB68BB62EFF3A8
:1081E00011824FF0020383F31188BFF36F8FBFF347
:1081F0004F8FBA617B61BB697B62BB6A9A6BBB6A5A
:10820000DB6B9A4202D33B68022B2FD1BB6A93F8F7
:10821000453087F82330BB6A9B6BFB613A68B968CD
:10822000B86A00F0D1F897F92330B3F1FF3F12D1CB
:10823000BB6A5B6A002B16D0BB6A24331846FEF774
:10824000BDFD0346002B0ED07B68002B0BD07B6856
:1082500001221A6007E097F823300133DBB25AB2EB
:10826000BB6A83F845200123FB6201E00023FB6227
:108270007B6A3B613B6983F31188FB6A18463037A0
:10828000BD4680BD80B58AB000AFF860B9607A6045
:1082900000237B62FB683B62FFF744FB3B6A9B6BFE
:1082A000FB61FB69002B1FD0B968386A00F0F6F853
:1082B000FB695A1E3B6A9A633B6A1B69002B0FD00D
:1082C0003B6A10331846FEF779FD0346002B07D0B2
:1082D0003C4B4FF080521A60BFF34F8FBFF36F8F4C
:1082E000FFF73AFB012369E07B68002B03D1FFF71E
:1082F00033FB002362E07B6A002B06D107F11403F5
:108300001846FEF7AFFD01237B62FFF725FBFEF762
:1083100077FBFFF707FB3B6A93F844305BB2B3F19E
:10832000FF3F03D13B6A002283F844203B6A93F865
:1083300045305BB2B3F1FF3F03D13B6A002283F8C3
:108340004520FFF709FB3A1D07F1140311461846B3
:10835000FEF79EFD0346002B23D1386A00F016F984
:108360000346002B17D03B6A24337A68114618461F
:10837000FEF7F0FC386A00F0B7F8FEF74FFB034653
:10838000002B89D10F4B4FF080521A60BFF34F8FF3
:10839000BFF36F8F80E7386A00F0A6F8FEF73EFB68
:1083A0007AE7386A00F0A0F8FEF738FB386A00F088
:1083B000EDF80346002B3FF46FAF00231846283733
:1083C000BD4680BD04ED00E080B586B000AFF8602A
:1083D000B9607A6000237B61FB689B6B3B61FB6843
:1083E0001B6C002B0DD1FB681B68002B4DD1FB686B
:1083F0009B681846FEF760FE7861FB6800229A6071
:1084000043E07B68002B19D1FB685868FB681B6C44
:108410001A46B96800F044F9FB685A68FB681B6C9F
:108420001A44FB685A60FB685A68FB689B689A426A
:108430002BD3FB681A68FB685A6026E0FB68D86893
:10844000FB681B6C1A46B96800F02AF9FB68DA6809
:10845000FB681B6C5B421A44FB68DA60FB68DA68F5
:10846000FB681B689A4207D2FB689A68FB681B6C22
:108470005B421A44FB68DA607B68022B05D13B69DA
:10848000002B02D03B69013B3B613B695A1CFB68F6
:108490009A637B6918461837BD4680BD80B582B0A7
:1084A00000AF786039607B681B6C002B18D07B684C
:1084B000DA687B681B6C1A447B68DA607B68DA6870
:1084C0007B689B689A4203D37B681A687B68DA6092
:1084D0007B68D9687B681B6C1A46386800F0E0F846
:1084E00000BF0837BD4680BD80B584B000AF78605E
:1084F000FFF718FA7B6893F84530FB7311E07B684F
:108500005B6A002B12D07B6824331846FEF756FCBA
:108510000346002B01D0FEF701FDFB7B013BDBB2E4
:10852000FB7397F90F30002BE9DC00E000BF7B689C
:10853000FF2283F84520FFF70FFAFFF7F3F97B6876
:1085400093F84430BB7311E07B681B69002B12D099
:108550007B6810331846FEF731FC0346002B01D030
:10856000FEF7DCFCBB7B013BDBB2BB7397F90E3043
:10857000002BE9DC00E000BF7B68FF2283F8442089
:10858000FFF7EAF900BF1037BD4680BD80B584B063
:1085900000AF7860FFF7C6F97B689B6B002B02D1B8
:1085A0000123FB6001E00023FB60FFF7D5F9FB68C6
:1085B00018461037BD4680BD80B584B000AF7860E6
:1085C000FFF7B0F97B689A6B7B68DB6B9A4202D14C
:1085D0000123FB6001E00023FB60FFF7BDF9FB68AE
:1085E00018461037BD4680BD80B485B000AF7860B6
:1085F00039600023FB6014E00E4AFB6852F8333008
:10860000002B0BD10B49FB683A6841F83320094A2B
:10861000FB68DB0013447A685A6005E0FB680133AD
:10862000FB60FB68012BE7D900BF1437BD465DF83E
:10863000047B7047F88B002080B586B000AFF860EF
:10864000B9607A60FB687B61FFF76CF97B6993F82E
:1086500044305BB2B3F1FF3F03D17B69002283F862
:1086600044207B6993F845305BB2B3F1FF3F03D1FF
:108670007B69002283F84520FFF76EF97B699B6BCD
:10868000002B06D17B6924337A68B9681846FEF757
:1086900077FB7869FFF728FF00BF1837BD4680BD1C
:1086A00010B5431E0A44914200D110BD11F8014B90
:1086B00003F8014FF7E70000F8B500BFF8BC08BCAD
:1086C0009E467047F8B500BFF8BC08BC9E46704790
:1086D0000023002049444C4500000000546D7220E6
:1086E00053766300546D72510000000000000000DA
:0886F00050DBFF7F01000000D8
:1086F8000000000000000000000000000000000072
:108708000000000000000000000000000000000061
:108718000000000000000000000000000000000051
:108728000000000000000000000000000000000041
:108738000000000000000000000000000000000031
:108748000000000000000000000000000000000021
:108758000090D003AAAAAAAA256202000162020018
:040000032000635D19
:00000001FF
